{
  "contractName": "MaxInfo",
  "abi": [
    {
      "inputs": [],
      "name": "getInfo",
      "outputs": [
        {
          "components": [
            {
              "internalType": "address",
              "name": "sender",
              "type": "address"
            },
            {
              "internalType": "uint256",
              "name": "sender_balance",
              "type": "uint256"
            },
            {
              "internalType": "uint256",
              "name": "block_number",
              "type": "uint256"
            }
          ],
          "internalType": "struct MaxInfo.Info",
          "name": "",
          "type": "tuple"
        }
      ],
      "stateMutability": "view",
      "type": "function",
      "constant": true
    }
  ],
  "bytecode": "0x608060405234801561001057600080fd5b506101c7806100206000396000f3fe608060405234801561001057600080fd5b506004361061002b5760003560e01c80635a9b0b8914610030575b600080fd5b61003861004e565b604051610045919061013a565b60405180910390f35b6100566100a3565b60405180606001604052803373ffffffffffffffffffffffffffffffffffffffff1681526020013373ffffffffffffffffffffffffffffffffffffffff1631815260200143815250905090565b6040518060600160405280600073ffffffffffffffffffffffffffffffffffffffff16815260200160008152602001600081525090565b6100e381610155565b82525050565b6060820160008201516100ff60008501826100da565b506020820151610112602085018261012b565b506040820151610125604085018261012b565b50505050565b61013481610187565b82525050565b600060608201905061014f60008301846100e9565b92915050565b600061016082610167565b9050919050565b600073ffffffffffffffffffffffffffffffffffffffff82169050919050565b600081905091905056fea2646970667358221220bfdc8f384b4fc63161540d51a2dd2114b65235d4a6d671c411ce96bcad2d201a64736f6c634300060c0033",
  "immutableReferences": {},
  "source": "// SPDX-License-Identifier: MIT                 r\npragma solidity >=0.6.0 <0.8.0;\npragma experimental ABIEncoderV2;\n\ncontract MaxInfo {\n\n\n  struct Info {\n    address sender;\n    uint256 sender_balance;\n    uint256 block_number;\n    \n  }\n\n  function getInfo() public view returns (Info memory) {\n    return Info(msg.sender, msg.sender.balance, block.number);\n  }\n\n\n  \n}\n\n",
  "sourcePath": "/Users/vladime/Documents/FINAL/Pseudo copie/contracts/MaxInfo.sol",
  "compiler": {
    "name": "solc",
    "version": "0.6.12+commit.27d51765.Linux.g++"
  },
  "schemaVersion": "3.3.2",
  "updatedAt": "2020-12-03T10:58:05.139Z",
  "networkType": "ethereum",
  "devdoc": {
    "kind": "dev",
    "methods": {},
    "version": 1
  },
  "userdoc": {
    "kind": "user",
    "methods": {},
    "version": 1
  }
}